:020000040800F2
:100000000000022091E70008F5D5000801D600089D
:1000100009D6000811D6000819D600080000000013
:1000200000000000000000000000000021D60008D1
:100030002DD600080000000039D60008C1E60008EF
:10004000EBE70008EDE70008EFE70008F1E700083C
:10005000F3E70008F5E70008512C0008C52C00085C
:10006000E92C00080D2D0008312D000801E80008DA
:1000700003E8000805E800087534000809E80008EE
:10008000AD3000080DE800080FE8000811E800088E
:1000900013E8000815E8000817E80008552D0008C7
:1000A0001BE800081DE800081FE8000821E8000818
:1000B000E527000825E8000827E8000829E80008E7
:1000C0002BE800082DE800082FE8000831E80008B8
:1000D00033E800089937000837E80008B9830008BA
:1000E000D12D00083DE800083FE8000841E800087D
:1000F0005129000845E8000847E8000849E80008D9
:100100004BE800084DE800084FE8000851E80008F7
:1001100053E8000855E80008F127000839290008CD
:100120006D2E00085DE80008D938000861E8000875
:1001300063E8000865E8000867E8000869E8000867
:100140006BE800086DE800086FE8000845D6000875
:1001500073E8000875E8000877E8000879E8000807
:100160007BE800087DE800087FE8000881E80008D7
:1001700083E8000885E8000887E8000889E80008A7
:100180008BE800088DE8000810B5054C237833B9DA
:10019000044B13B10448AFF300800123237010BD5A
:1001A000400D002000000000F83E010808B5064B95
:1001B0001BB106480649AFF300800648036813B137
:1001C000054B03B1984708BD00000000F83E010848
:1001D000440D00203C0D002000000000154B002BBA
:1001E00008BF134B9D46A3F5803A00218B460F466E
:1001F0001348144A121A0FF027FA0F4B002B00D0A5
:1002000098470E4B002B00D0984700200021040097
:100210000D000D48002802D00C480FF04DFB0FF0E8
:1002200051F9200029000EF05DFA0FF03BF900BFF4
:100230000000080000000220000000000000000094
:10024000400D00200C220020B9F80008C5F8000875
:1002500080B400AF4FF40053C4F201034FF40052D6
:10026000C4F20102D26A42F41002DA624FF4005280
:10027000C4F201024FF40053C4F20103596B48F673
:100280002003C1F281230B4353634FF40052C4F2A5
:1002900001024FF40053C4F20103196B4BF68B13A8
:1002A000C0F207030B4313634FF40053C4F201037E
:1002B0004FF40052C4F20102126942F47C3242F45B
:1002C000FC721A614FF40052C4F201024FF4005361
:1002D000C4F20103D96840F6FF73C3F600730B4301
:1002E000D3604FF40053C4F201034FF40052C4F240
:1002F0000102526842F480725A604FF40053C4F213
:1003000001034FF40052C4F20102926842F44072B9
:1003100042F002029A6046F21043C4F2020346F22F
:100320001042C4F2020212681A6046F21042C4F28D
:10033000020246F21043C4F20203996842F24C03EF
:10034000C4F201030B43936046F21043C4F202036C
:1003500046F21042C4F20202D16840F69462C2F240
:1003600000020A43DA6046F21043C4F2020346F286
:100370001042C4F20202126822F0C0021A6046F271
:100380001043C4F202034FF00A025A6046F21043CF
:10039000C4F2020346F21042C4F20202126822F4CE
:1003A00000721A6046F21043C4F2020346F2104291
:1003B000C4F20202126842F4A0621A6046F21043CC
:1003C000C4F2020346F21042C4F20202126842F47E
:1003D00000621A6046F21043C4F2020346F2104271
:1003E000C4F20202126842F400521A6046F210434C
:1003F000C4F2020346F21042C4F20202126842F44E
:1004000040321A6046F21043C4F2020346F2104230
:10041000C4F20202126842F010021A6046F210435F
:10042000C4F2020346F21042C4F20202126842F021
:1004300011021A604FF40053C4F201034FF400524A
:10044000C4F20102926842F001029A604FF4005334
:10045000C4F201034FF40052C4F20102926842F068
:1004600080429A60BD4680BC704700BF80B483B0B4
:1004700000AF0346FB714FF46143CEF2000397F9DE
:1004800007204FEA5212F97901F01F014FF00100E5
:1004900000FA01F143F8221007F10C07BD4680BCB9
:1004A000704700BF80B483B000AF03463960FB7172
:1004B00097F90730002B10DA4FF46D43CEF20003AA
:1004C000FA7902F00F02A2F104013A68D2B24FEABF
:1004D0000212D2B25B181A760DE04FF46143CEF2ED
:1004E000000397F907103A68D2B24FEA0212D2B26B
:1004F0005B1883F8002307F10C07BD4680BC7047EA
:1005000080B582B000AF78607A686FF07F439A421E
:1005100002D94FF001031FE04EF21003CEF20003A8
:100520007A6822F07F4202F1FF325A604FF0FF30CA
:100530004FF00F01FFF7B6FF4EF21003CEF20003AB
:100540004FF000029A604EF21003CEF200034FF01B
:1005500007021A604FF00003184607F10807BD466E
:1005600080BD00BF90B583B000AF034687ED000AA1
:10057000FB7197ED007AF7EE007AB4EEE77AF1EED0
:1005800010FA02DD4FF07E533B60D7ED007AF5EEB6
:10059000C07AF1EE10FA02D54FF000033B60FA7911
:1005A00040F20003C2F2000353F8224038680EF014
:1005B000F3FB02460B46104619464FF000024FF47B
:1005C0008043C4F28F030EF03BFC02460B461046FC
:1005D00019460EF0CFFE034623604FF00003184685
:1005E00007F10C07BD4690BD90B583B000AF024641
:1005F0000B4687ED000AFA71BB71FB79FF2B02D124
:100600004FF00003AFE038680EF0C6FB02460B4621
:100610001046194656A3D3E900230EF0A1FE034667
:10062000002B04D046F26663C3F666733B603868FD
:100630000EF0B2FB02460B46104619464EA3D3E914
:1006400000230EF06FFE0346002B04D04CF6CD4382
:10065000C3F6CC533B6097F90630002B3DDDFA79A9
:1006600040F20003C2F2000353F8224038680EF053
:1006700093FB02460B46104619464FF000024FF41A
:100680008043C4F28F030EF0DBFB02460B4610469C
:1006900019460EF06FFE03462360FA7940F22803F4
:1006A000C2F2000353F822304FEA131303F580130C
:1006B00003F180034FEA832303F118031A46F97903
:1006C00040F22803C2F2000353F8213003F00F0375
:1006D0004FF0010101FA03F3136097F90630002B84
:1006E0003FDAFA7940F20003C2F2000353F82240E5
:1006F00038680EF051FB02460B46104619464FF083
:1007000000024FF48043C4F28F030EF099FB0246BF
:100710000B46104619460EF02DFE03462360FA796B
:1007200040F22803C2F2000353F822304FEA1313B9
:1007300003F5801303F180034FEA832303F11803C9
:100740001A46F97940F22803C2F2000353F8213027
:1007500003F00F0303F110034FF0010101FA03F35B
:1007600013604FF00003184607F10C07BD4690BD1B
:10077000CDCCCCCCCCCCEC3F9A9999999999B93FF6
:1007800080B584B000AF034687ED000AFB714FF0DF
:100790000003FB60D7ED007AF5EEC07AF1EE10FAB7
:1007A00003DD4FF07E53FB6004E04FF00003CBF617
:1007B0008073FB60D7ED007AF0EEE77A17EE900ACF
:1007C0000EF0EAFA02460B46104619464FF00002B8
:1007D0004FF40043C4F293030EF032FB02460B4683
:1007E0001046194614A3D3E900230EF053FC024629
:1007F0000B461046194612A3D3E900230EF06EF9FA
:1008000002460B46104619460EF0FCFD0346BB603F
:10081000D7ED037AFDEEE77A17EE903ADBB2FA797C
:100820005BB21046194697ED020AFFF7DDFE184647
:1008300007F11007BD4680BDBB648B7A99CC95400B
:100840009A9999999999B93F90B482B000AF0246AC
:100850000B46FA71BB714FF46053C4F20103FA798D
:1008600002F00F024FEAA2004FF46052C4F20102FC
:10087000F97901F00F014FEAA10101F1020152F8EB
:100880002110FA794FEA1212D2B21446FA7902F024
:1008900003024FEA820204FA02F2114300F102025B
:1008A00043F822104FF47053C4F201034FF4705216
:1008B000C4F201021168FA7902F00F024FF0010050
:1008C00000FA02F20A431A60BB79012B2AD0022BEC
:1008D0004FD0002B72D14FF47053C4F201034FF488
:1008E0007052C4F20102D168FA7902F00F024FF09F
:1008F000010000FA02F20A43DA604FF47053C4F2C6
:1009000001034FF47052C4F201029168FA7902F0C7
:100910000F024FF0010000FA02F26FEA02020A40F1
:100920009A604BE04FF47053C4F201034FF47052DD
:10093000C4F20102D168FA7902F00F024FF001000F
:1009400000FA02F26FEA02020A40DA604FF47053D2
:10095000C4F201034FF47052C4F201029168FA79B3
:1009600002F00F024FF0010000FA02F20A439A600F
:1009700024E04FF47053C4F201034FF47052C4F2F8
:1009800001029168FA7902F00F024FF0010000FABB
:1009900002F20A439A604FF47053C4F201034FF419
:1009A0007052C4F20102D168FA7902F00F024FF0DE
:1009B000010000FA02F20A43DA6000BF07F10807FB
:1009C000BD4690BC704700BF90B482B000AF0346F4
:1009D000FB714FF46053C4F20103FA7902F00F0285
:1009E0004FEAA2004FF46052C4F20102F97901F01B
:1009F0000F014FEAA10101F1020152F82110FA7929
:100A00004FEA1212D2B21446FA7902F003024FEA08
:100A1000820204FA02F26FEA0202114000F10202BD
:100A200043F822104FF47053C4F201034FF4705294
:100A3000C4F201021168FA7902F00F024FF00100CE
:100A400000FA02F26FEA02020A401A6007F1080790
:100A5000BD4690BC704700BF80B586B004AF4FF074
:100A600080504FF001010DF0CFFC4FF4E043C4F291
:100A700000034FF4E042C4F20002126842F48072B4
:100A80001A6072B608F014FC4FF480504FF0010168
:100A90000DF066FC4FF001004FF001010DF060FC1D
:100AA0004FF002004FF001010DF05AFC4FF004002E
:100AB0004FF001010DF054FC4FF008004FF0010120
:100AC0000DF04EFC4FF010004FF001010DF048FC0E
:100AD0004FF001004FF001010DF0C0FC4FF001009C
:100AE0004FF001010DF090FC4FF002004FF00101BA
:100AF0000DF08AFC4FF004004FF001010DF084FC72
:100B00004FF010004FF001010DF07EFC4FF020007F
:100B10004FF001010DF078FC4FF002004FF00101A1
:100B20000DF09CFC4FF480304FF001010DF096FC6D
:100B30004FF400304FF001010DF090FC4FF4802095
:100B40004FF001010DF08AFC4FF040004FF0010121
:100B50000DF05AFC4FF080004FF001010DF054FCF5
:100B60004FF480704FF001010DF078FC4FF0100051
:100B70004FF001010DF048FC4FF480204FF00101CF
:100B80000DF042FC4FF400104FF001010DF0E8FBB6
:100B90004FF480004FF001010DF0E2FB4FF4804074
:100BA0004FF001010DF05AFC4FF40063C4F2020350
:100BB0004FF40062C4F20202126822F0405242F086
:100BC00080521A6040F60403C4F2020340F60402A5
:100BD000C4F20202126822F480421A6040F608034E
:100BE000C4F2020340F60802C4F20202126822F0C4
:100BF000405242F000521A6040F60C03C4F2020365
:100C000040F60C02C4F20202126822F040521A604E
:100C10004FF40063C4F202034FF40062C4F2020214
:100C2000126822F0404242F080421A6040F604030B
:100C3000C4F2020340F60402C4F20202126822F473
:100C400000421A6040F60803C4F2020340F60802AC
:100C5000C4F20202126822F0404242F000421A60DE
:100C600040F60C03C4F2020340F60C02C4F2020286
:100C7000126822F040421A604FF48053C4F202031B
:100C80004FF48052C4F20202126822F4401242F47D
:100C900080121A6041F20403C4F2020341F204021A
:100CA000C4F20202126822F480621A6041F2080360
:100CB000C4F2020341F20802C4F20202126822F4F2
:100CC000401242F400121A6041F20C03C4F2020313
:100CD00041F20C02C4F20202126822F440121A60BD
:100CE0004FF48053C4F202034FF48052C4F2020264
:100CF000126822F0405242F080521A6041F204031E
:100D0000C4F2020341F20402C4F20202126822F4A5
:100D100080421A6041F20803C4F2020341F2080261
:100D2000C4F20202126822F0405242F000521A60ED
:100D300041F20C03C4F2020341F20C02C4F20202BB
:100D4000126822F040521A604FF48053C4F202033A
:100D50004FF48052C4F20202126822F4404242F47C
:100D600080421A6041F20403C4F2020341F2040219
:100D7000C4F20202126822F080021A6041F20803F3
:100D8000C4F2020341F20802C4F20202126822F421
:100D9000404242F400421A6041F20C03C4F20203E2
:100DA00041F20C02C4F20202126822F440421A60BC
:100DB0004FF48053C4F202034FF48052C4F2020293
:100DC000126822F0300242F010021A6041F204036D
:100DD000C4F2020341F20402C4F20202126822F0D9
:100DE00004021A6041F20803C4F2020341F208024D
:100DF000C4F20202126822F0300242F020021A60AD
:100E000041F20C03C4F2020341F20C02C4F20202EA
:100E1000126822F030021A604FF48053C4F20203C9
:100E20004FF48052C4F20202126822F4403242F4BB
:100E300080321A6041F20403C4F2020341F2040258
:100E4000C4F20202126822F480721A6041F20803AE
:100E5000C4F2020341F20802C4F20202126822F450
:100E6000403242F400321A6041F20C03C4F2020331
:100E700041F20C02C4F20202126822F440321A60FB
:100E80004FF48053C4F202034FF48052C4F20202C2
:100E9000126822F0406242F080621A6041F204035C
:100EA000C4F2020341F20402C4F20202126822F404
:100EB00000521A6041F20803C4F2020341F2080230
:100EC000C4F20202126822F0406242F000621A602C
:100ED00041F20C03C4F2020341F20C02C4F202021A
:100EE000126822F040621A604FF48053C4F2020389
:100EF0004FF48052C4F20202126822F0407242F0B3
:100F000080721A6041F20403C4F2020341F2040247
:100F1000C4F20202126822F480521A6041F20803FD
:100F2000C4F2020341F20802C4F20202126822F083
:100F3000407242F000721A6041F20C03C4F20203E4
:100F400041F20C02C4F20202126822F040721A60EE
:100F50004FF48063C4F202034FF48062C4F20202D1
:100F6000126822F0406242F080621A6040F204434C
:100F7000C4F2020340F20442C4F20202126822F4F4
:100F800000521A604FF48163C4F202034FF481628D
:100F9000C4F20202126822F0406242F000621A605B
:100FA00040F20C43C4F2020340F20C42C4F20202CB
:100FB000126822F040621A604FF40063C4F2020328
:100FC0004FF40062C4F20202126822F0406242F062
:100FD00080621A6040F60403C4F2020340F6040281
:100FE000C4F20202126822F400521A6040F60803AA
:100FF000C4F2020340F60802C4F20202126822F0B0
:10100000406242F000621A6040F60C03C4F2020330
:1010100040F60C02C4F20202126822F040621A602A
:101020004FF40063C4F202034FF40062C4F2020200
:10103000126822F4403242F480321A6040F604030F
:10104000C4F2020340F60402C4F20202126822F45F
:1010500080721A6040F60803C4F2020340F60802E8
:10106000C4F20202126842F440321A6040F60C03E5
:10107000C4F2020340F60C02C4F20202126822F427
:1010800040321A604FF40063C4F202034FF400626E
:10109000C4F20202126822F4402242F480221A6052
:1010A00040F60403C4F2020340F60402C4F2020252
:1010B000126822F400721A6040F60803C4F20203B8
:1010C00040F60802C4F20202126842F440221A609A
:1010D00040F60C03C4F2020340F60C02C4F2020212
:1010E000126822F440221A604FF00003C4F2020397
:1010F0004FF00002C4F20202126822F4406242F48D
:1011000080621A604FF00403C4F202034FF004023D
:10111000C4F20202126822F020021A604FF00803A3
:10112000C4F202034FF00802C4F20202126842F451
:1011300040621A604FF00C03C4F202034FF00C023D
:10114000C4F20202126822F440621A604FF4406353
:10115000C4F202034FF44062C4F20202126822F4A5
:10116000400242F480021A6040F60443C4F20203D3
:1011700040F60442C4F20202126822F400621A60CD
:1011800040F60843C4F2020340F60842C4F20202E9
:10119000126842F440021A6040F60C43C4F20203A3
:1011A00040F60C42C4F20202126822F440021A60B5
:1011B0004FF48063C4F202034FF48062C4F202026F
:1011C000126822F4406242F480621A6040F20443E2
:1011D000C4F2020340F20442C4F20202126822F096
:1011E00020021A604FF48163C4F202034FF481625B
:1011F000C4F20202126842F440621A6040F20C43E8
:10120000C4F2020340F20C42C4F20202126822F459
:1012100040621A604FF48063C4F202034FF48062AC
:10122000C4F20202126822F4407242F480721A6020
:1012300040F20443C4F2020340F20442C4F2020248
:10124000126822F010021A604FF48163C4F20203A4
:101250004FF48162C4F20202126842F440721A60D2
:1012600040F20C43C4F2020340F20C42C4F2020208
:10127000126822F440721A604FF44063C4F2020311
:101280004FF44062C4F20202126822F0407242F04F
:1012900000721A6040F60443C4F2020340F60442AE
:1012A000C4F20202126822F480521A6040F6084327
:1012B000C4F2020340F60842C4F20202126822F0AD
:1012C000407242F000721A6040F60C43C4F202030E
:1012D00040F60C42C4F20202126822F040721A6018
:1012E00040F62443C4F2020340F62442C4F2020250
:1012F000126822F4702242F400321A604FF4406304
:10130000C4F202034FF44062C4F20202126822F0F7
:10131000406242F000621A6040F60443C4F20203E5
:1013200040F60442C4F20202126822F400521A602B
:1013300040F60843C4F2020340F60842C4F2020237
:10134000126822F0406242F000621A6040F60C43DC
:10135000C4F2020340F60C42C4F20202126822F008
:1013600040621A6040F62443C4F2020340F624426D
:10137000C4F20202126822F4700242F400121A60EF
:101380004FF44063C4F202034FF44062C4F202021D
:10139000126822F0405242F000521A6040F60443B4
:1013A000C4F2020340F60442C4F20202126822F4BC
:1013B00080421A6040F60843C4F2020340F6084235
:1013C000C4F20202126822F0405242F000521A6047
:1013D00040F60C43C4F2020340F60C42C4F202028F
:1013E000126822F040521A6040F62443C4F202030D
:1013F00040F62442C4F20202126822F0706242F007
:1014000000721A604FF44063C4F202034FF440626A
:10141000C4F20202126822F0404242F000421A6016
:1014200040F60443C4F2020340F60442C4F202024E
:10143000126822F400421A6040F60843C4F2020324
:1014400040F60842C4F20202126822F0404242F022
:1014500000421A6040F60C43C4F2020340F60C420C
:10146000C4F20202126822F040421A6040F624439D
:10147000C4F2020340F62442C4F20202126822F0CF
:10148000704242F000521A604FF48063C4F20203CB
:101490004FF48062C4F20202126822F4402242F445
:1014A00000221A6040F20443C4F2020340F20442F4
:1014B000C4F20202126822F400721A604FF48163CF
:1014C000C4F202034FF48162C4F20202126822F4F1
:1014D000402242F400221A6040F20C43C4F202039C
:1014E00040F20C42C4F20202126822F440221A6056
:1014F00040F22443C4F2020340F22442C4F2020246
:10150000126822F0F00242F030021A604FF4806359
:10151000C4F202034FF48062C4F20202126822F4A1
:10152000403242F400321A6040F20443C4F2020333
:1015300040F20442C4F20202126822F480721A607D
:101540004FF48163C4F202034FF48162C4F20202D9
:10155000126822F4403242F400321A6040F20C4326
:10156000C4F2020340F20C42C4F20202126822F4F6
:1015700040321A6040F22443C4F2020340F2244293
:10158000C4F20202126822F00F0242F003021A6053
:101590004FF48053C4F202034FF48052C4F20202AB
:1015A000126822F4405242F400521A6041F20403DD
:1015B000C4F2020341F20402C4F20202126822F0F1
:1015C00040021A6041F20803C4F2020341F2080229
:1015D000C4F20202126822F4405242F400521A602D
:1015E00041F20C03C4F2020341F20C02C4F2020203
:1015F000126822F440521A604FF48153C4F202037D
:101600004FF48152C4F20202126822F0706242F07A
:1016100040721A604FF48053C4F202034FF48052B8
:10162000C4F20202126822F4406242F400621A60BC
:1016300041F20403C4F2020341F20402C4F20202C2
:10164000126822F020021A6041F20803C4F2020379
:1016500041F20802C4F20202126822F4406242F42B
:1016600000621A6041F20C03C4F2020341F20C0260
:10167000C4F20202126822F440621A604FF48153ED
:10168000C4F202034FF48152C4F20202126822F43F
:10169000700242F440121A604FF48063C4F20203F5
:1016A0004FF48062C4F20202126822F0405242F00B
:1016B00000521A6040F20443C4F2020340F20442B2
:1016C000C4F20202126822F480421A604FF481636D
:1016D000C4F202034FF48162C4F20202126822F0E3
:1016E000405242F000521A6040F20C43C4F202032E
:1016F00040F20C42C4F20202126822F040521A6018
:1017000040F22443C4F2020340F22442C4F2020233
:10171000126822F0706242F010621A604FF4806327
:10172000C4F202034FF48062C4F20202126822F093
:10173000404242F000421A6040F20443C4F2020305
:1017400040F20442C4F20202126822F400421A601B
:101750004FF48163C4F202034FF48162C4F20202C7
:10176000126822F0404242F000421A6040F20C43FC
:10177000C4F2020340F20C42C4F20202126822F0E8
:1017800040421A6040F22443C4F2020340F2244271
:10179000C4F20202126822F0704242F010421A6053
:1017A0004FF0010300934FF0010301934FF0010349
:1017B00002934FF40060C4F200004FF4D0614FF484
:1017C0007A724FF0010301F085FB4FF000030093A4
:1017D0004FF0000301934FF0000302934FF4904049
:1017E000C4F2010040F606514FF47A724FF0010343
:1017F00001F070FB4FF0000300934FF000030193E2
:101800004FF0000302934FF48840C4F201004FF000
:101810000E014FF47A724FF0010301F05BFB4FF0C1
:10182000010300934FF0000301934FF00003029374
:101830004FF48040C4F201004FF00E014FF47A7271
:101840004FF0010301F046FB4FF0010300934FF00E
:10185000000301934FF0000302934FF4C050C4F211
:1018600000004FF007014FF47A724FF0010301F0CE
:1018700031FB4FF48050C4F2000041F699114FF053
:10188000400201F0A5FB4FF03600FEF7EFFD4FF4EC
:10189000A050C4F200004FF00A014FF0FF0201F027
:1018A00097FB4FF03700FEF7E1FD4FF4E050C4F234
:1018B000000042F2D0014FF47A7201F089FB4FF040
:1018C0002C00FEF7D3FD4FF40063C4F202034FF483
:1018D0000062C4F20202126822F4405242F4005242
:1018E0001A6040F60403C4F2020340F60402C4F294
:1018F0000202126822F040021A6040F60803C4F2A5
:10190000020340F60802C4F20202126822F44052B6
:101910001A6040F60C03C4F2020340F60C02C4F253
:101920000202126822F4405242F480521A604FF4CC
:101930000263C4F202034FF40262C4F202021268AC
:1019400022F0706242F040721A604FF40063C4F2F9
:1019500002034FF40062C4F20202126822F4404211
:1019600042F400421A6040F60403C4F2020340F657
:101970000402C4F20202126822F080021A6040F6E9
:101980000803C4F2020340F60802C4F2020212681D
:1019900022F440421A6040F60C03C4F2020340F6FF
:1019A0000C02C4F20202126822F4404242F4804265
:1019B0001A604FF40263C4F202034FF40262C4F2ED
:1019C0000202126822F0704242F040521A604FF454
:1019D0008053C4F202034FF48052C4F20202126830
:1019E00022F4402242F400221A6041F20403C4F2BD
:1019F000020341F20402C4F20202126822F40072ED
:101A00001A6041F20803C4F2020341F20802C4F270
:101A10000202126822F440221A6041F20C03C4F25E
:101A2000020341F20C02C4F20202126822F44022C4
:101A300042F480221A6041F22403C4F2020341F20C
:101A40002402C4F20202126822F0F00242F01002F4
:101A50001A604FF48053C4F202034FF48052C4F270
:101A60000202126822F4400242F400021A6041F2BB
:101A70000403C4F2020341F20402C4F20202126837
:101A800022F400621A6041F20803C4F2020341F238
:101A90000802C4F20202126822F440021A6041F203
:101AA0000C03C4F2020341F20C02C4F202021268F7
:101AB00022F4400242F480021A6041F22403C4F28C
:101AC000020341F22402C4F20202126822F47042BC
:101AD00042F480521A604FF00003C4F202034FF048
:101AE0000002C4F20202126822F4405242F4005290
:101AF0001A604FF00403C4F202034FF00402C4F270
:101B00000202126822F040021A604FF00803C4F289
:101B100002034FF00802C4F20202126822F440529B
:101B20001A604FF00C03C4F202034FF00C02C4F22F
:101B30000202126822F4405242F480521A604FF0BE
:101B40002003C4F202034FF02002C4F20202126822
:101B500022F0706242F000721A604FF00003C4F28B
:101B600002034FF00002C4F20202126822F4404263
:101B700042F400421A604FF00403C4F202034FF033
:101B80000402C4F20202126822F080021A604FF0CE
:101B90000803C4F202034FF00802C4F20202126802
:101BA00022F440421A604FF00C03C4F202034FF0DB
:101BB0000C02C4F20202126822F4404242F4804253
:101BC0001A604FF02003C4F202034FF02002C4F267
:101BD0000202126822F0704242F000521A604FF086
:101BE0000003C4F202034FF00002C4F202021268C2
:101BF00022F0404242F000421A604FF00403C4F267
:101C000002034FF00402C4F20202126822F40042FE
:101C10001A604FF00803C4F202034FF00802C4F246
:101C20000202126822F040421A604FF00C03C4F224
:101C300002034FF00C02C4F20202126822F040428A
:101C400042F080421A604FF02403C4F202034FF0C6
:101C50002402C4F20202126822F0704242F0805262
:101C60001A604FF48063C4F202034FF48062C4F23E
:101C70000202126822F0C00242F080021A6040F2B2
:101C80000443C4F2020340F20442C4F202021268A6
:101C900022F008021A604FF48163C4F202034FF489
:101CA0008162C4F20202126822F0C0021A6040F29D
:101CB0000C43C4F2020340F20C42C4F20202126866
:101CC00022F0C00242F040021A604FF48463C4F272
:101CD00002034FF48462C4F20202126822F47042DA
:101CE00042F480521A604FF48060C4F2010001F0A7
:101CF000CFF84FF00000C4F2010001F0C9F84FF432
:101D00008060C4F2000001F0C3F84FF0804001F0A1
:101D1000BFF84FF40063C4F202034FF40062C4F250
:101D20000202126822F4400242F400021A6040F6F5
:101D30000403C4F2020340F60402C4F20202126871
:101D400022F400621A6040F60803C4F2020340F66F
:101D50000802C4F20202126822F440021A6040F63D
:101D60000C03C4F2020340F60C02C4F20202126831
:101D700022F4400242F480021A6040F62403C4F2C6
:101D8000020340F62402C4F20202126822F47042F6
:101D900042F4E0421A604FF40063C4F202034FF4CD
:101DA0000062C4F20202126822F4401242F40012ED
:101DB0001A6040F60403C4F2020340F60402C4F2BF
:101DC0000202126822F480621A6040F60803C4F22C
:101DD000020340F60802C4F20202126822F4401222
:101DE0001A6040F60C03C4F2020340F60C02C4F27F
:101DF0000202126822F4401242F480121A6040F685
:101E00002403C4F2020340F62402C4F20202126860
:101E100022F4706242F4E0621A604FF49040C4F21F
:101E2000000044F24021C0F20F0101F04BF94FF4E1
:101E30009043C4F200034FF49042C4F20002928A2D
:101E400092B242F0800292B29A824FF00003C4F242
:101E500002034FF00002C4F20202126842F00302D1
:101E60001A604FF00403C4F202034FF00402C4F2FC
:101E70000202126822F001021A604FF00803C4F255
:101E800002034FF00802C4F20202126822F00302B9
:101E900042F002021A604FF00C03C4F202034FF04A
:101EA0000C02C4F20202126822F003021A604FF020
:101EB0000003C4F202034FF00002C4F202021268EF
:101EC00042F00C021A604FF00403C4F202034FF018
:101ED0000402C4F20202126822F002021A604FF0F9
:101EE0000803C4F202034FF00802C4F202021268AF
:101EF00022F00C0242F008021A604FF00C03C4F208
:101F000002034FF00C02C4F20202126822F00C022B
:101F10001A604FF00003C4F202034FF00002C4F253
:101F20000202126822F030021A604FF00403C4F279
:101F300002034FF00402C4F20202126822F004020B
:101F40001A604FF00803C4F202034FF00802C4F213
:101F50000202126822F0300242F020021A604FF0B2
:101F60000C03C4F202034FF00C02C4F20202126826
:101F700022F0300242F010021A604FF00003C4F267
:101F800002034FF00002C4F20202126822F0C00203
:101F90001A604FF00403C4F202034FF00402C4F2CB
:101FA0000202126822F008021A604FF00803C4F21D
:101FB00002034FF00802C4F20202126822F0C002CB
:101FC00042F080021A604FF00C03C4F202034FF09B
:101FD0000C02C4F20202126822F0C00242F0400277
:101FE0001A604FF48063C4F202034FF48062C4F2BB
:101FF0000202126822F003021A6040F20443C4F2A3
:10200000020340F20442C4F20202126822F001020A
:102010001A604FF48163C4F202034FF48162C4F288
:102020000202126822F0030242F002021A6040F239
:102030000C43C4F2020340F20C42C4F202021268E2
:1020400022F0030242F001021A604FF48063C4F2EE
:1020500002034FF48062C4F20202126822F00C0202
:102060001A6040F20443C4F2020340F20442C4F294
:102070000202126822F002021A604FF48163C4F275
:1020800002034FF48162C4F20202126822F00C02D1
:1020900042F008021A6040F20C43C4F2020340F21C
:1020A0000C42C4F20202126822F00C0242F0040256
:1020B0001A604FF40063C4F202034FF40062C4F2EA
:1020C0000202126822F00C021A6040F60403C4F205
:1020D000020340F60402C4F20202126822F0020275
:1020E0001A6040F60803C4F2020340F60802C4F284
:1020F0000202126822F00C0242F008021A6040F656
:102100000C03C4F2020340F60C02C4F2020212688D
:1021100022F00C0242F004021A604FF40063C4F291
:1021200002034FF40062C4F20202126822F030028D
:102130001A6040F60403C4F2020340F60402C4F23B
:102140000202126822F004021A6040F60803C4F288
:10215000020340F60802C4F20202126822F03002C2
:1021600042F020021A6040F60C03C4F2020340F66B
:102170000C02C4F20202126822F0300242F0100295
:102180001A604FF40063C4F202034FF40062C4F219
:102190000202126842F440721A6040F60403C4F26C
:1021A000020340F60402C4F20202126822F0100296
:1021B0001A6040F60803C4F2020340F60802C4F2B3
:1021C0000202126822F4407242F400721A6040F671
:1021D0000C03C4F2020340F60C02C4F202021268BD
:1021E00022F440721A604FF40063C4F202034FF409
:1021F0000062C4F20202126842F440621A6040F6C1
:102200000403C4F2020340F60402C4F2020212689C
:1022100022F020021A6040F60803C4F2020340F6DE
:102220000802C4F20202126822F4406242F4006220
:102230001A6040F60C03C4F2020340F60C02C4F22A
:102240000202126822F440621A60FEF701F84FF4AD
:102250004063C4F202034FF44062C4F20202126807
:1022600022F003021A6040F60443C4F2020340F66F
:102270000442C4F20202126822F001021A6040F61F
:102280000843C4F2020340F60842C4F20202126894
:1022900022F0030242F002021A6040F60C43C4F23C
:1022A000020340F60C42C4F20202126822F003025A
:1022B0001A604FF44063C4F202034FF44062C4F268
:1022C0000202126822F00C0242F004021A6040F688
:1022D0000443C4F2020340F60442C4F2020212684C
:1022E00022F002021A6040F60843C4F2020340F6EC
:1022F0000842C4F20202126822F00C0242F0080204
:102300001A6040F60C43C4F2020340F60C42C4F2D9
:102310000202126822F00C0242F004021A604FF42A
:102320004063C4F202034FF44062C4F20202126836
:1023300022F030021A6040F60443C4F2020340F671
:102340000442C4F20202126822F004021A6040F64B
:102350000843C4F2020340F60842C4F202021268C3
:1023600022F0300242F020021A6040F60C43C4F220
:10237000020340F60C42C4F20202126822F030025C
:1023800042F010021A604FF44063C4F202034FF4AB
:102390004062C4F20202126822F0C0021A6040F6E3
:1023A0000443C4F2020340F60442C4F2020212687B
:1023B00022F008021A6040F60843C4F2020340F615
:1023C0000842C4F20202126822F0C00242F0800207
:1023D0001A6040F60C43C4F2020340F60C42C4F209
:1023E0000202126822F0C00242F040021A604FF46A
:1023F0008053C4F202034FF48052C4F20202126806
:1024000022F4407242F480721A6041F20403C4F272
:10241000020341F20402C4F20202126822F0100226
:102420001A6041F20803C4F2020341F20802C4F246
:102430000202126822F4407242F400721A6041F201
:102440000C03C4F2020341F20C02C4F2020212684D
:1024500022F440721A604FF44063C4F202034FF456
:102460004062C4F20202126822F4405242F48052E6
:102470001A6040F60443C4F2020340F60442C4F278
:102480000202126822F040021A6040F60843C4F2C9
:10249000020340F60842C4F20202126822F44052DB
:1024A00042F400521A6040F60C43C4F2020340F6B4
:1024B0000C42C4F20202126822F440521A604FF435
:1024C0004063C4F202034FF44062C4F20202126895
:1024D00022F4404242F480421A6040F60443C4F2BF
:1024E000020340F60442C4F20202126822F08002A3
:1024F0001A6040F60843C4F2020340F60842C4F2F0
:102500000202126822F4404242F400421A6040F68D
:102510000C43C4F2020340F60C42C4F202021268F9
:1025200022F4404242F480421A604FF44063C4F205
:1025300002034FF44062C4F20202126822F44032F5
:102540001A6040F60443C4F2020340F60442C4F2A7
:102550000202126822F480721A6040F60843C4F244
:10256000020340F60842C4F20202126822F440322A
:1025700042F400321A6040F60C43C4F2020340F603
:102580000C42C4F20202126822F440321A604FF484
:102590004063C4F202034FF44062C4F202021268C4
:1025A00022F440221A6040F60443C4F2020340F6CB
:1025B0000442C4F20202126822F400721A6040F669
:1025C0000843C4F2020340F60842C4F20202126851
:1025D00022F4402242F400221A6040F60C43C4F276
:1025E000020340F60C42C4F20202126822F44022B6
:1025F00042F480221A604FF44063C4F202034FF4A5
:102600004062C4F20202126822F440121A6040F6DC
:102610000443C4F2020340F60442C4F20202126808
:1026200022F480621A6040F60843C4F2020340F6C6
:102630000842C4F20202126822F4401242F400126C
:102640001A6040F60C43C4F2020340F60C42C4F296
:102650000202126822F4401242F480121A604FF013
:1026600030004FF00201FEF7EFF84FF031004FF06D
:102670000201FEF7E9F84FF032004FF00201FEF7D9
:10268000E3F84FF033004FF00201FEF7DDF84FF0B2
:1026900044004FF00201FEF7D7F84FF036004FF03C
:1026A0000201FEF7D1F84FF037004FF00201FEF7BC
:1026B000CBF84FF038004FF00201FEF7C5F84FF0AD
:1026C00039004FF00201FEF7BFF84FF03A004FF02B
:1026D0000201FEF7B9F84FF006033B704FF010030C
:1026E0007B704FF00003BB704FF00103FB703B4663
:1026F00018460BF0E7FB4FF45270FDF701FF62B68E
:1027000040F61803C4F202034FF400521A6044F674
:102710004030C0F24C0005F08FFE40F61803C4F2C2
:1027200002034FF000521A604FF000037B600FE08D
:1027300040F66403C2F200037A689B181B781846BF
:102740009FED0A0AFEF71CF87B6803F101037B602A
:102750007B68032BECDD4FF0A00006F0B9FB06F020
:102760009BF907F10807BD4680BD00BF00000000CF
:1027700080B483B000AF0346FB714FF46143CEF2E7
:10278000000397F907204FEA5212F97901F01F016F
:102790004FF0010000FA01F143F8221007F10C0795
:1027A000BD4680BC704700BF80B483B000AF034615
:1027B000FB714FF46143CEF2000397F907204FEA13
:1027C0005212F97901F01F014FF0010000FA01F1F6
:1027D00002F1200243F8221007F10C07BD4680BC2D
:1027E000704700BF80B400AFBD4680BC704700BFDB
:1027F00080B52DED028B82B000AF4FF48053C4F250
:1028000000034FF000021A824FF02C00FFF7CCFFBC
:1028100007F04EFB4FF02C00FFF7AAFF40F64C03E9
:10282000C2F200039B78002B09D040F6BC50C2F2E4
:10283000000040F6AC51C2F2000106F0E1FD4FF09D
:102840000003FB711FE040F64C03C2F200031B784B
:10285000002B14D0FA7940F66403C2F200039A5CAC
:10286000F97940F6AC53C2F200034FEA81015B18DC
:10287000D3ED007A1046B0EE670AFDF781FFFB79D1
:1028800003F10103FB71FB79032BDCD940F6705394
:10289000C2F20003D3ED007AB0EE670A06F032FB15
:1028A000F0EE407A40F67053C2F20003C3ED007AB6
:1028B00040F67053C2F2000393ED007AF0EE007A16
:1028C000B4EE677AF1EE10FA17D040F66C53C2F20C
:1028D0000003D3ED007AB8EEE77A40F67053C2F207
:1028E0000003D3ED007A77EE277AFDEEE77A40F623
:1028F0006C53C2F20003C3ED007A40F66C53C2F28F
:1029000000031B684FF4B47202FB03F307EE903A26
:10291000B8EEE78A05F044FFF0EE407A78EE277AC9
:1029200041F68C03C2F20003C3ED007A07F10807F9
:10293000BD46BDEC028B80BD80B400AF4FF4A05308
:10294000C4F200034FF000021A82BD4680BC7047FB
:102950002DE9B04382B000AF4FF4E053C4F200035E
:102960004FF000021A824FF03600FFF71DFF41F6CC
:102970000013C2F2000393ED047A40F6DC53C2F276
:102980000003D3ED027A77EE677AC7ED017A41F65C
:102990000013C2F20003D3ED067AF0EEE77A17EEE9
:1029A000900A0CF0F9F98046894641F60013C2F20C
:1029B0000003D3ED097AF0EEE77A17EE900A0CF0F7
:1029C000EBF902460B46404649460CF085F80246B4
:1029D0000B461046194699A3D3E900230CF0A2FC3C
:1029E0000346002B37D041F60013C2F20003D3EDAB
:1029F0000A7AF0EEE77A17EE900A0CF0CDF902466B
:102A00000B46104619468DA3D3E900230CF08AFC2F
:102A10000346002B1FD007F10403184606F0CCFF35
:102A2000034618460CF0A6F902460B46144623F05E
:102A300000452046294683A3D3E900230CF072FC0D
:102A40000346002B07D040F6A863C2F200034FF004
:102A500001021A700DE040F6A863C2F200034FF0C5
:102A600000021A7040F6AA63C2F200034FF000029F
:102A70001A7040F6AB63C2F200031B78002B1BD127
:102A800040F29C33C2F20003DB68002B0DD040F211
:102A90009C33C2F20003DB68984703461A4640F6AF
:102AA000AB63C2F200031A7006E040F6AB63C2F2F9
:102AB00000034FF001021A7040F6A863C2F200034F
:102AC0001B78002B31D040F6AB63C2F200031B78B9
:102AD000002B2AD040F6A963C2F200031B78002B1A
:102AE00023D140F29C33C2F200031B69002B15D0A6
:102AF00040F29C33C2F200031A6940F29C33C2F2E6
:102B00000003D3ED057AB0EE670A904703461A46F4
:102B100040F6A963C2F200031A7006E040F6A9630A
:102B2000C2F200034FF001021A7040F6A863C2F22D
:102B300000031B78002B5AD040F6AB63C2F20003AF
:102B40001B78002B53D040F6A963C2F200031B7818
:102B5000002B4CD040F6CA53C2F200031B78002B66
:102B60003ED0354840F29C31C2F2000141F60012DD
:102B7000C2F2000207F074FB40F6C853C2F2000331
:102B80001B8803F101039AB240F6C853C2F2000356
:102B90001A8040F29C30C2F2000040F6CA51C2F2E4
:102BA000000106F08DFA40F6A963C2F200034FF06F
:102BB00000021A7040F6AB63C2F200034FF000024D
:102BC0001A7040F6A863C2F200034FF000021A70B8
:102BD00040F6AA63C2F200034FF000021A7006E04A
:102BE00040F6AA63C2F200034FF001021A7040F6E9
:102BF0004C03C2F200035B78002B11D040F6DC508E
:102C0000C2F2000040F6E851C2F2000141F60012A3
:102C1000C2F2000240F6BC53C2F2000306F0E0FD2F
:102C20004FF03600FFF7A4FD07F10807BD46BDE8E9
:102C3000B08300BFAFF30080C40300207B14AE4715
:102C4000E17A843F7B14AE47E17A943FAFF3008092
:102C500080B582B000AF4FF47053C4F201034FF05F
:102C600001025A614FF00203FB7141F61043C2F2B8
:102C700000031A6841F61043C2F200031A6041F6DD
:102C80001043C2F200031A6840F67853C2F2000300
:102C90001B68D31A18460CF05DF840F66053C2F278
:102CA0000003C3E9000141F61043C2F200031A68B1
:102CB00040F67853C2F200031A6007F10807BD46D8
:102CC00080BD00BF80B483B000AF4FF47053C4F236
:102CD00001034FF002025A614FF00503FB7107F147
:102CE0000C07BD4680BC704780B483B000AF4FF482
:102CF0007053C4F201034FF004025A614FF0040311
:102D0000FB7107F10C07BD4680BC704780B483B0EF
:102D100000AF4FF47053C4F201034FF008025A6140
:102D20004FF00603FB7107F10C07BD4680BC7047EE
:102D300080B483B000AF4FF47053C4F201034FF07E
:102D400010025A614FF00903FB7107F10C07BD46F1
:102D500080BC704780B500AF40F65D53C2F20003FF
:102D60004FF000021A7040F65D53C2F200031A7869
:102D700040F65C53C2F200031B789A421DD041F624
:102D80001043C2F200031A6840F67453C2F2000303
:102D90001B68D31A18460BF0DDFF40F66053C2F2F1
:102DA0000003C3E9000141F61043C2F200031A68B0
:102DB00040F67453C2F200031A6040F65D53C2F24B
:102DC00000031A7840F65C53C2F200031A7080BD0B
:102DD00080B483B000AF4FF47053C4F201035B6959
:102DE00003F48053002B09D04FF47053C4F2010355
:102DF0004FF480525A614FF00303FB714FF470534C
:102E0000C4F201035B6903F40053002B09D04FF4B3
:102E10007053C4F201034FF400525A614FF00A0399
:102E2000BB714FF47053C4F201035B6903F40043B8
:102E3000002B16D040F66853C2F200031B8803F142
:102E400001039AB240F66853C2F200031A804FF4AD
:102E50007053C4F201034FF400425A614FF0010372
:102E60007B7107F10C07BD4680BC704780B400AF92
:102E70004FF4C843C4F202034FF4C842C4F2020242
:102E8000926842F020029A60BD4680BC704700BF45
:102E900080B483B000AF78607B684FF000021A8581
:102EA0007B684FF6FF72DA627B684FF081021A800E
:102EB0007B684FF003021A817B6840F201121A838B
:102EC0007B684FF000025A6207F10C07BD4680BCD8
:102ED000704700BF80B485B000AFF86079813A8157
:102EE000FB71FB79002B0FD0FB681B8B9BB243F06F
:102EF00064039AB2FB681A83FB681B8C9BB243F095
:102F000001039AB2FB681A843B7E002B0FD0FB684A
:102F10001B8B9BB243F4C8439AB2FB681A83FB68CD
:102F20001B8C9BB243F010039AB2FB681A843B7F60
:102F3000002B0FD0FB689B8B9BB243F064039AB2CB
:102F4000FB689A83FB681B8C9BB243F480739AB234
:102F5000FB681A8497F82030002B0FD0FB689B8BFE
:102F60009BB243F4C8439AB2FB689A83FB681B8CFC
:102F70009BB243F480539AB2FB681A84FB687A8947
:102F80001A853A89FB68DA62FB684FF085021A807D
:102F9000FB684FF001029A81FB684FF44042A3F8AE
:102FA0004420FB684FF44042A3F84420FB684FF0F4
:102FB00000025A63FB684FF000029A63FB684FF00F
:102FC00001029A8207F11407BD4680BC704700BF1A
:102FD00080B483B000AF786013460A467A803B80A5
:102FE0007B684FF000025A627B687A881A853A88BB
:102FF0007B68DA627B689B899BB243F001039AB2DB
:103000007B689A817B684FF081021A8007F10C0778
:10301000BD4680BC704700BF80B483B000AF03469C
:10302000FB714FF46143CEF2000397F907204FEA9A
:103030005212F97901F01F014FF0010000FA01F17D
:1030400043F8221007F10C07BD4680BC704700BF53
:1030500080B485B000AF78600B46FB704FF44053EE
:10306000C4F202034FF001029A604FF00003FB73B9
:103070000CE04FF44053C4F20203FA7B79688A18DB
:1030800012781A60FB7B03F10103FB73FA7BFB7878
:103090009A42EED34FF44053C4F202031B68184621
:1030A00007F11407BD4680BC704700BF80B400AF75
:1030B0004FF4C043C4F202034FF40062DA60BD462D
:1030C00080BC704780B58AB000AF786039604FF03F
:1030D00000037B624FF000033B624FF00003FB6193
:1030E0004FF00003BB6107F1080318460BF052F8DC
:1030F0007A684FF48053C4F201039A4206D07A688A
:103100004FF4A053C4F201039A4202D17B693B629F
:1031100001E03B693B627B689B899BB29BB21BB21F
:10312000002B0EDA3A6A13464FEA83039B184FEAE4
:1031300083029A183B684FEA4303B2FBF3F3FB6147
:103140000DE03A6A13464FEA83039B184FEA830265
:103150009A183B684FEA8303B2FBF3F3FB61FA6909
:1031600048F21F53C5F2EB13A3FB02134FEA5313AC
:103170004FEA03137B627B6A4FEA13134FF064023A
:1031800002FB03F3FA69D31ABB617B689B899BB28C
:103190009BB21BB2002B12DABB694FEAC30303F1E7
:1031A000320248F21F53C5F2EB13A3FB02134FEA9E
:1031B000531303F007037A6A13437B6211E0BB6980
:1031C0004FEA031303F1320248F21F53C5F2EB1327
:1031D000A3FB02134FEA531303F00F037A6A13435E
:1031E0007B627B6A9AB27B681A817B6842F22C020E
:1031F0009A8107F12807BD4680BD00BF80B582B027
:1032000000AF7860396046F2B843C4F2020346F278
:10321000B842C4F20202126822F001021A6046F2B9
:10322000B843C4F2020346F2B842C4F20202126882
:1032300042F000621A6046F2B843C4F2020341F25F
:103240000402C4F201029A6046F2B843C4F20203D7
:103250007A68DA6046F2B843C4F2020346F2B84232
:10326000C4F20202126822F0C0021A6046F2B843A9
:10327000C4F2020346F2B842C4F20202126842F0FB
:1032800040021A6046F2B843C4F202033A685A6038
:1032900046F2B843C4F2020346F2B842C4F2020254
:1032A000126822F400721A6046F2B843C4F20203B4
:1032B00046F2B842C4F20202126842F480621A6016
:1032C00046F2B843C4F2020346F2B842C4F2020224
:1032D000126842F440321A6046F2B843C4F2020364
:1032E00046F2B842C4F20202126842F010021A60BA
:1032F0004FF48053C4F201034FF48052C4F2010230
:10330000128892B222F0400292B21A804FF4C8435F
:10331000C4F202034FF000629A6046F2B843C4F26E
:10332000020346F2B842C4F20202126842F00102FD
:103330001A604FF04600FFF76FFE07F10807BD4621
:1033400080BD00BF80B582B000AF7860396046F2C2
:103350004043C4F2020346F24042C4F20202126841
:1033600022F001021A6046F24043C4F2020346F220
:103370004042C4F20202126842F000621A6046F251
:103380004043C4F2020341F20402C4F201029A6013
:1033900046F24043C4F202037A68DA6046F24043E0
:1033A000C4F2020346F24042C4F20202126822F062
:1033B000C0021A6046F24043C4F202033A685A60FF
:1033C00046F24043C4F2020346F24042C4F2020213
:1033D000126822F400721A6046F24043C4F20203FB
:1033E00046F24042C4F20202126842F480621A605D
:1033F00046F24043C4F2020346F24042C4F20202E3
:10340000126842F440321A6046F24043C4F20203AA
:1034100046F24042C4F20202126842F010021A6000
:103420004FF4C843C4F202034FF400629A6046F2BC
:103430004043C4F2020346F24042C4F20202126860
:1034400042F001021A604FF03A00FFF7E5FD07F184
:103450000807BD4680BD00BF80B483B000AF0346FF
:10346000FB714FF00003184607F10C07BD4680BC06
:10347000704700BF80B582B000AF4FF000037B60A3
:1034800040F2B803C2F200034FF000021A724FF488
:10349000C043C4F202031B6803F00063002B00F07A
:1034A0006F8146F25803C4F2020346F25802C4F296
:1034B0000202126822F001021A604FF4C043C4F203
:1034C00002034FF4C042C4F20202926842F040622A
:1034D0009A6040F2B803C2F200031A6A40F2B803DD
:1034E000C2F200035B689A420EDD40F2B803C2F2FA
:1034F00000031A6A40F2B803C2F200035B68D31AF1
:1035000003F1FF337B600FE040F2B803C2F2000327
:103510001B6A03F1C70240F2B803C2F200035B6802
:10352000D31A03F1FF337B607B68002B40F32081CB
:1035300040F2B803C2F200031A6A40F2B803C2F2C2
:1035400000035B689A4274DD40F2B803C2F20003E4
:103550005B68C72B06D140F2B803C2F200034FF0FC
:10356000FF325A6040F2B803C2F200035B6803F115
:10357000010240F2B803C2F200031A6040F2B8033D
:10358000C2F200031B6A03F1FF3240F2B803C2F239
:1035900000035A6040F2B803C2F200035A6840F2D6
:1035A000B803C2F200031B68D31A03F1010240F210
:1035B000B803C2F200039A6140F2B803C2F20003FA
:1035C0001B681A4640F6B463C2F20003D21840F2F8
:1035D000B803C2F20003DA6140F2B803C2F200039A
:1035E0004FF001021A7240F2B803C2F20003DA6926
:1035F00040F2B803C2F200039B6910461946FFF778
:10360000FDFD40F2B803C2F200034FF003025A720C
:1036100040F2B803C2F200035A6940F2B803C2F2A2
:1036200000039B69D21840F2B803C2F200035A614A
:10363000AEE040F2B803C2F200035B68C72B35D19D
:1036400040F2B803C2F200034FF000021A6040F2E9
:10365000B803C2F200031B6A03F1FF3240F2B80361
:10366000C2F200035A6040F2B803C2F200035A6883
:1036700040F2B803C2F200031B68D31A03F101023F
:1036800040F2B803C2F200039A6140F2B803C2F2FA
:1036900000031B681A4640F6B463C2F20003D21856
:1036A00040F2B803C2F20003DA6134E040F2B8033A
:1036B000C2F200035B6803F1010240F2B803C2F2F8
:1036C00000031A6040F2B803C2F200034FF0C702D1
:1036D0005A6040F2B803C2F200035A6840F2B803DD
:1036E000C2F200031B68D31A03F1010240F2B803CF
:1036F000C2F200039A6140F2B803C2F200031B68F1
:103700001A4640F6B463C2F20003D21840F2B8037E
:10371000C2F20003DA6140F2B803C2F200034FF0D4
:1037200001021A7240F2B803C2F200035A6940F271
:10373000B803C2F200039B69D21840F2B803C2F288
:1037400000035A6140F2B803C2F20003DA6940F2A2
:10375000B803C2F200039B6910461946FFF74EFDFD
:1037600040F2B803C2F200034FF004025A720FE0B5
:1037700040F2B803C2F200034FF000021A7207E0F1
:1037800040F2B803C2F200034FF000021A7200BF09
:1037900007F10807BD4680BD80B582B000AF4FF489
:1037A0008053C4F201031B889BB2FB714FF480531A
:1037B000C4F201034FF000021A80FB7903F02003EA
:1037C000002B04D1FB7903F00803002B7ED04FF4CB
:1037D0008053C4F201039B889BB2DAB240F6AC631B
:1037E000C2F200035A7040F6AC63C2F200035B7889
:1037F000184603F0DDFF4FF48053C4F201031B8829
:103800009BB2FB71FB7903F00803002B1AD04FF435
:103810008053C4F201039B889BB2DAB240F6AC63DA
:10382000C2F200035A7040F6AC63C2F200035B7848
:10383000184603F0BDFF4FF48053C4F201031B8808
:103840009BB2FB7140F6AC63C2F200031B78AA2B5B
:1038500032D140F6AC63C2F200035B78012B2BD16E
:1038600040F6AC63C2F200035A7840F2DC03C2F2C5
:1038700000035A7017484FF01B01FFF763FD4FF428
:103880008053C4F201034FF48052C4F201029289C2
:1038900092B222F0200292B29A814FF48053C4F285
:1038A00001034FF48052C4F20102928A92B242F0B4
:1038B000400292B29A8209E040F6AC63C2F2000381
:1038C0005A7840F6AC63C2F200031A7007F1080799
:1038D000BD4680BDDD00002080B582B000AF46F25D
:1038E0004043C4F2020346F24042C4F202021268AC
:1038F00022F001021A604FF4C843C4F202034FF4ED
:10390000C842C4F20202926842F400629A604FF424
:103910008053C4F201034FF48052C4F20102928931
:1039200092B242F0200292B29A8140F2DC00C2F2DE
:1039300000004FF01A01FFF78BFB0346FB8040F2BB
:10394000DC03C2F200035B8BFA889A424DD140F24D
:10395000DC03C2F20003D3F80E2013461A4640F6E9
:10396000DC53C2F200031A6040F2DC03C2F200032F
:10397000D3F8122013461A4640F6DC53C2F2000375
:103980005A6040F2DC03C2F20003D3F8162013465B
:103990001A4640F6DC53C2F200039A6040F2DC03A0
:1039A000C2F20003D3F8062013461A4640F6E85345
:1039B000C2F200031A6040F2DC03C2F20003D3F843
:1039C000022013461A4640F6E853C2F200035A603A
:1039D00040F2DC03C2F20003D3F80A2013461A4671
:1039E00040F6E853C2F200039A6007F10807BD46AB
:1039F00080BD00BF80B584B000AF78600B46FB701F
:103A000078684FF081014FF040024FF0020301F05F
:103A1000D5FD78684FF001014FF040024FF00203EE
:103A200001F0CCFD78684FF082014FF008024FF0B2
:103A3000030301F0C3FD40F6A003C2F20003FB60E4
:103A4000FB6803F104034FF002021A70FB6803F1F4
:103A500005034FF000021A7040F67003C2F2000333
:103A60001B68984778684FF0010140F6C072C2F2B7
:103A700000024FF0400301F03FFE4FF000031846F4
:103A800007F11007BD4680BD80B582B000AF7860F9
:103A90000B46FB7078684FF0810101F0E9FD786812
:103AA0004FF0010101F0E4FD78684FF0820101F070
:103AB000DFFD40F67003C2F200035B6898474FF0E9
:103AC0000003184607F10807BD4680BD80B582B0E7
:103AD00000AF786039603B681B7803F06003002B0F
:103AE00058D0202B4FD13B68DB88002B3BD03B6864
:103AF0001B78DBB25BB2002B1ADA40F67003C2F21D
:103B000000039B683A68527811463A68D2880846A2
:103B100041F20001C2F2000198473B68DB887868F7
:103B200041F20001C2F200011A4603F073F827E0E7
:103B30003B685B781A4640F23C13C2F200031A60FD
:103B40003B68DB881A4640F69053C2F200031A60C5
:103B50003B68DB88786841F20001C2F200011A4636
:103B600003F094F80CE040F67003C2F200039B6887
:103B70003A68527810464FF000014FF00002984723
:103B80004FF0000335E07868396803F091FD4FF09D
:103B900002032EE03B685B780A2B0AD00B2B12D075
:103BA000062B24D17868396803F082FD4FF00203B8
:103BB0001FE0786840F67C51C2F200014FF001022C
:103BC00003F028F813E03B685B88DBB2002B09D1D7
:103BD0003B685B88DBB21A4640F67C53C2F20003B6
:103BE0001A6003E07868396803F062FD00BF4FF0A7
:103BF0000003184607F10807BD4680BD90B583B0A5
:103C000000AF786040F23C13C2F200031B68FF2B48
:103C10001CD040F67003C2F200039C6840F23C13D3
:103C2000C2F200031A6840F69053C2F200031B6808
:103C3000104641F20001C2F200011A46A04740F2CC
:103C40003C13C2F200034FF0FF021A604FF0000372
:103C5000184607F10C07BD4690BD00BF80B584B083
:103C600000AF78600B46FB7040F68C53C2F2000345
:103C70001B78012B73D140F68853C2F200031B68F6
:103C8000002B07D140F68C53C2F200034FF0000224
:103C90001A7064E040F68853C2F200031B68402BA0
:103CA00021D940F68453C2F200031B68FB814FF018
:103CB0004003BB8140F68453C2F200031B6803F14A
:103CC000400240F68453C2F200031A6040F6885363
:103CD000C2F200031B68A3F1400240F68853C2F20F
:103CE00000031A602CE040F68453C2F200031B6804
:103CF000FB8140F68853C2F200031B68BB8140F68B
:103D00008453C2F200031A6840F68853C2F20003DB
:103D10001B68D21840F68453C2F200031A6040F6C2
:103D20008853C2F200034FF000021A60BB89402B97
:103D300006D140F68C53C2F200034FF002021A7013
:103D4000FA8941F20803C2F20003D218BB897868ED
:103D50004FF0810101F018FD4FF0000318E040F62C
:103D60008C53C2F200031B78022B0FD178684FF0FE
:103D700081014FF000024FF0000301F005FD40F615
:103D80008C53C2F200034FF000021A704FF0000390
:103D9000184607F11007BD4680BD00BF80B584B04E
:103DA00000AF78600B46FB70FA78796813464FEAEB
:103DB00083039B184FEAC303CB1803F563731B6897
:103DC000FB8140F67003C2F200031B69FA8940F6DA
:103DD000C070C2F200001146984778684FF00101A8
:103DE00040F6C072C2F200024FF0400301F084FCC2
:103DF0004FF00003184607F11007BD4680BD00BF15
:103E000080B582B000AF786040F69453C2F20003F0
:103E10001B68052B14BF00220122D2B203F101015D
:103E200040F69453C2F200031960002A09D040F60C
:103E30009453C2F200034FF000021A60786800F059
:103E400007F84FF00003184607F10807BD4680BD8C
:103E500080B584B000AF786040F68C53C2F20003A6
:103E60001B78002B40F0BD8040F68453C2F2000363
:103E70001B68B3F5006F06D140F68453C2F200030D
:103E80004FF000021A6040F68453C2F200031A6831
:103E900040F68053C2F200031B689A4207D140F6F5
:103EA0008C53C2F200034FF000021A7099E040F602
:103EB0008453C2F200031A6840F68053C2F2000332
:103EC0001B689A420CD940F68453C2F200031B6867
:103ED000C3F5006240F68853C2F200031A600FE097
:103EE00040F68053C2F200031A6840F68453C2F2CF
:103EF00000031B68D21A40F68853C2F200031A600E
:103F000040F68853C2F200031B68402B28D940F6C4
:103F10008453C2F200031B68FB814FF04003BB8156
:103F200040F68453C2F200031B6803F1400240F6DE
:103F30008453C2F200031A6040F68853C2F20003B1
:103F40001B68A3F1400240F68853C2F200031A60D6
:103F500040F68C53C2F200034FF001021A7034E0B5
:103F600040F68453C2F200031B68FB8140F688537D
:103F7000C2F200031B68BB8140F68453C2F2000307
:103F80001A6840F68853C2F200031B68D21840F644
:103F90008453C2F200031A6040F68853C2F2000351
:103FA0004FF000021A60BB89402B07D140F68C53BA
:103FB000C2F200034FF002021A7006E040F68C5382
:103FC000C2F200034FF001021A70FA8941F20803AD
:103FD000C2F20003D218BB8978684FF0810101F06A
:103FE000D3FB07F11007BD4680BD00BF80B483B08E
:103FF00000AF03463960FB713B684FF043021A8003
:1040000040F2F803C2F20003184607F10C07BD4660
:1040100080BC704780B485B000AF78604FF000037B
:10402000FB607B68DB684FF0FF325A607B68DB68BF
:104030006FF080425A61FB6843F00043FB60FB680D
:1040400043F40063FB607B68DB68FA689A6107F100
:104050001407BD4680BC704780B586B000AF78605D
:104060004FF00003FB744FF000037B614FF000033F
:10407000FB604FF0030009F095FB7B68DB681B6970
:10408000FB607B6903F101037B617A694FF4546340
:10409000C0F203039A4202D94FF000032AE0FB6802
:1040A00003F00043002BE4D04FF000037B61FB687A
:1040B00043F00103FB607B68DB68FA681A617B6888
:1040C000DB681B69FB607B6903F101037B617A6933
:1040D0004FF45463C0F203039A4205D8FB6803F01F
:1040E0000103002BEBD100E000BF4FF0030009F00B
:1040F00059FBFB7C184607F11807BD4680BD00BF81
:1041000080B489B000AFF860B960FA71BB804FF03D
:104110000003FB76FB68DB78002B2DD14FF000030A
:104120007B614FF00003FB61BB8803F1030303F1E4
:104130000302002BB8BF13464FEAA3037B61FB7950
:10414000FA6803F132034FEA8303D3189B683B619B
:104150004FF00003FB610BE0BB681A683B691A6013
:10416000BB6803F10403BB60FB6903F10103FB615E
:10417000FA697B699A42EFD3FB7E184607F1240760
:10418000BD4680BC704700BF80B489B000AFF86006
:10419000B9601346FB804FF00003FB61FB8803F11D
:1041A000030303F10302002BB8BF13464FEAA30336
:1041B000BB61FB68D3F8D0307B614FF00003FB613B
:1041C0000BE07B691A68BB681A60BB6803F10403E3
:1041D000BB60FB6903F10103FB61FA69BB699A42A9
:1041E000EFD3BB68184607F12407BD4680BC704773
:1041F00080B487B000AF78600B46FB704FF00003CF
:104200003B614FF00003FB737B684FF00002DA70F4
:104210007B684FF001029A707B684FF040029A80F1
:10422000FB78012B17D14FF0A0433B617B684FF027
:104230000102DA727B684FF008021A707B684FF057
:1042400004025A707B684FF4A072DA807B684FF0EA
:1042500002021A7217E0FB78002B14D14FF0000312
:10426000C4F204033B617B684FF00002DA727B68A2
:104270004FF00C021A707B684FF006025A707B6890
:104280004FF4A062DA803A697B68DA603B6903F533
:1042900000631A467B681A614FF000037B6123E0DC
:1042A0007B694FEA43123B69D31803F510631A4642
:1042B00079687B6903F104034FEA8303CB189A60A2
:1042C0007B694FEA43123B69D31803F530631A4602
:1042D00079687B6903F114034FEA8303CB185A60B2
:1042E0007B6903F101037B617B685B781A467B691C
:1042F0009A42D5D83B6903F580631A467B685A61B8
:104300003B6903F588631A467B68C3F8CC204FF0FD
:1043100000037B6113E07B694FEA43123B69D318CA
:1043200003F5A0631A4679687B6903F122034FEA1B
:104330008303CB189A607B6903F101037B617B687F
:104340001B781A467B699A42E5D84FF000037B61DF
:1043500013E07B694FEA03323B69D31803F58053BE
:104360001A4679687B6903F132034FEA8303CB185D
:104370009A607B6903F101037B617B681B781A46B5
:104380007B699A42E5D83B6903F560631A467B680E
:10439000C3F80C21FB7B184607F11C07BD4680BC07
:1043A000704700BF80B586B000AF78604FF0000363
:1043B000FB754FF000033B614FF00003FB604FF0D3
:1043C0000003BB607B681B7A012B44D17B68DB68F0
:1043D0009B6BFB60FB686FF31043FB607B685B7A51
:1043E000002B03D0FB6843F48013FB607B68DB6821
:1043F000FA689A634FF000033B617B68DB68DB6817
:104400003B613B696FF386133B613B696FF39653E6
:104410003B613B696FF351433B613B696FF3D343AE
:104420003B617B68DB683A69DA607868FFF714FE05
:104430007B68DB78012B3CD1BB684FF0050262F34F
:104440004403BB60BB6843F02003BB607B68DB6850
:10445000BA689A602DE07B68DB68DB683B613B698A
:1044600043F040033B617B68DB683A69DA60786857
:10447000FFF7F2FD4FF00003FB60FB6843F480336D
:10448000FB60FB6843F48023FB60FB6843F400237C
:10449000FB607B685B7A002B03D0FB6843F48013DE
:1044A000FB607B68DB68FA689A634FF0140009F0E0
:1044B000A5F97B68DB78012B11D17B68DB689B68F1
:1044C000BB60BB684FF0050262F34403BB60BB688E
:1044D00043F02003BB607B68DB68BA689A60FB7DB1
:1044E000184607F11807BD4680BD00BF80B485B0EF
:1044F00000AF78604FF00003FB734FF00003BB6028
:10450000BB6843F00103BB607B68DB687A68D268F4
:104510009168BA680A439A60FB7B184607F1140752
:10452000BD4680BC704700BF80B485B000AF7860E6
:104530004FF00003FB734FF00003BB60BB6843F018
:104540000103BB607B68DB687A68D2689168BA68EF
:104550006FEA02020A409A60FB7B184607F11407D3
:10456000BD4680BC704700BF80B586B000AF7860A4
:1045700039604FF00003FB744FF000037B614FF094
:104580000003FB60FB6843F02003FB603B68DBB289
:1045900003F01F03DAB2FB6862F38A13FB607B68E7
:1045A000DB68FA681A617B68DB681B69FB607B6902
:1045B00003F101037B617A694FF45463C0F2030392
:1045C0009A4205D8FB6803F02003002BEBD100E0F2
:1045D00000BF4FF0030009F0E5F8FB7C184607F137
:1045E0001807BD4680BD00BF80B586B000AF7860BB
:1045F0004FF00003FB744FF000037B614FF00003AA
:10460000FB60FB6843F01003FB607B68DB68FA68C3
:104610001A617B68DB681B69FB607B6903F101033E
:104620007B617A694FF45463C0F203039A4205D860
:10463000FB6803F01003002BEBD100E000BF4FF04C
:10464000030009F0AFF8FB7C184607F11807BD46D8
:1046500080BD00BF80B584B000AF78600B46FB70B2
:104660004FF00003FB737B68DB68DB68BB60BB68F3
:104670006FF35D73BB60BB686FF39E73BB60FB78C9
:10468000012B04D1BB6843F00053BB6006E0FB780C
:10469000002B03D1BB6843F08043BB607B68DB68C1
:1046A000BA68DA604FF0320009F0A8F8FB7B1846D0
:1046B00007F11007BD4680BD80B483B000AF7860BD
:1046C0007B68DB685B6903F00103184607F10C07A0
:1046D000BD4680BC704700BF80B582B000AF786037
:1046E0007868FFF7E9FF0346012B0CBF0023012385
:1046F000DBB2184607F10807BD4680BD80B485B01F
:1047000000AF78604FF00003FB607B68DB685B699B
:10471000FB607B68DB689B69FA681340FB60FB68A1
:10472000184607F11407BD4680BC704780B485B0B9
:1047300000AF78600B46FB707B681B691B68FB60F1
:10474000FB7803F00303DAB2FB6862F30103FB605A
:104750007B681B69FA681A6007F11407BD4680BCC4
:10476000704700BF80B58CB000AF78604FF0000399
:1047700087F82B304FF000037B624FF000033B6261
:104780004FF00003FB614FF00003BB614FF00003EB
:104790007B617B68D3F80C314FF000021A607B68B4
:1047A0001B691B683B623B6A6FF3CC233B627B68EF
:1047B0001B693A6A1A607B68DB7A012B47D17868FB
:1047C0004FF00301FFF7B2FF7B68DB684FF0800218
:1047D0005A62FB694FF0200262F31F43FB61FB69E1
:1047E0004FF0800262F30F03FB617B68DB68FA69BC
:1047F0009A62BA8BFB8BD3189BB23B83BB694FF099
:10480000800262F31F43BB617B68DB68BA69C3F84F
:1048100004213A8B7B8BD3189BB23B83BB694FF04F
:10482000200262F31F43BB617B68DB68BA69C3F88F
:1048300008213A8B7B8BD3189BB23B83BB696FF308
:104840001F43BB617B68DB68BA69C3F80C217868D9
:104850004FF01001FFF788FE7868FFF7C5FE7B6810
:104860001B694FF000021A617B681B694FF0000260
:104870005A617B681B694FF0FF329A617B681B6944
:104880004FF00002DA614FF00003FB6243E07A6808
:10489000FB6A03F104034FEA8303D3189B681B6888
:1048A0007B6297F8273023F07F03DBB2002B0BD01D
:1048B0004FF000037B627B6A43F080437B627B6A3C
:1048C00043F000637B6202E04FF000037B627A6892
:1048D000FB6A03F104034FEA8303D3189B687A6AE7
:1048E0001A607A68FB6A03F104034FEA8303D31862
:1048F0009B684FF000021A617A68FB6A03F10403B7
:104900004FEA8303D3189B684FF0FF029A60FB6A5B
:1049100003F10103FB627B685B781A46FB6A9A42EB
:10492000B5D84FF00003FB6242E07A68FB6A03F1FE
:1049300014034FEA8303D3185B681B68FB60FB7B9F
:1049400023F07F03DBB2002B0BD04FF00003FB60A2
:10495000FB6843F08043FB60FB6843F00063FB604F
:1049600002E04FF00003FB607A68FB6A03F1140376
:104970004FEA8303D3185B68FA681A607A68FB6AA7
:1049800003F114034FEA8303D3185B684FF000026E
:104990001A617A68FB6A03F114034FEA8303D318A0
:1049A0005B684FF0FF029A60FB6A03F10103FB6250
:1049B0007B685B781A46FB6A9A42B6D84FF00003D0
:1049C0007B617B6943F480737B617B681B697A68D8
:1049D000126911697A696FEA020211407A690A4321
:1049E0001A617B68DB78012B1ED14FF000033B611D
:1049F0003B6943F001033B613B6943F002033B61C8
:104A00003B694FF0400262F38A033B613B6943F428
:104A100080333B613B694FF0400262F359433B6195
:104A20007B681B693A691A63786800F007F897F8A1
:104A30002B30184607F13007BD4680BD80B584B0E5
:104A400000AF78604FF00003FB734FF00003BB60D2
:104A50007B68DB684FF000029A617B68DB686FF06F
:104A600080425A617868FFF7D5FA7B68DB78002BC3
:104A700003D1BB6843F01003BB60BB6843F4006321
:104A8000BB60BB6843F48053BB60BB6843F4005316
:104A9000BB60BB6843F48023BB60BB6843F4002366
:104AA000BB60BB6843F00803BB60BB6843F4801382
:104AB000BB60BB6843F40013BB60BB6843F080433A
:104AC000BB60BB6843F00403BB607B68DB687A684B
:104AD000D2689169BA686FEA02021140BA680A4363
:104AE0009A61FB7B184607F11007BD4680BD00BFE9
:104AF00080B485B000AF78604FF00003FB737B6833
:104B00001B699B68BB60BB68C3F34103DBB2032B2B
:104B100016D801A252F823F0294B0008314B0008A7
:104B2000394B0008314B00084FF00303FB730BE0D7
:104B30004FF00203FB7307E04FF00103FB7303E048
:104B40004FF00203FB7300BFFB7B184607F114070D
:104B5000BD4680BC704700BF80B487B000AF7860AE
:104B60004FF00003FB754FF00003BB607B681B69CF
:104B70009B683B617B689B691B68FB603B69C3F377
:104B80004103DBB2032B17D801A252F823F000BF78
:104B9000A14B0008A14B0008AB4B0008A14B00083B
:104BA000FB686FF30A03FB600BE0FB684FF0030246
:104BB00062F30A03FB6004E0FB686FF30A03FB6027
:104BC00000BF7B689B69FA681A60BB6843F4807316
:104BD000BB607B681B697A6812695168BA686FEAC2
:104BE00002021140BA680A435A60FB7D184607F179
:104BF0001C07BD4680BC704780B487B000AF7860AA
:104C000039604FF00003FB744FF00003FB604FF07E
:104C10000003BB603B685B78012B12D13B681B78BB
:104C20007A6803F104034FEA8303D3189B687B611E
:104C30003B681B784FF0010202FA03F39BB23B8101
:104C400014E03B681B787A6803F114034FEA83038E
:104C5000D3185B687B613B681B784FF0010202FA56
:104C600003F39AB2BB6862F31F43BB607B691B68A6
:104C7000FB607B7B23F07F03DBB2002B29D13B68F9
:104C80009B689BB24FEA43534FEA53539AB2FB6877
:104C900062F30A03FB603B68DB7803F00303DAB2DC
:104CA000FB6862F39343FB603B68DB88DBB203F095
:104CB0000F03DAB2FB6862F39953FB60FB6843F0C1
:104CC0008053FB60FB6843F40043FB60FA687B6938
:104CD0001A607B681B697A681269D169BA680A43ED
:104CE000DA61FB7C184607F11C07BD4680BC7047A3
:104CF00080B487B000AF786039604FF00003FB7478
:104D00004FF00003FB604FF00003BB603B685B7833
:104D1000012B12D13B681B787A6803F104034FEA38
:104D20008303D3189B687B613B681B784FF00102BB
:104D300002FA03F39BB23B8114E03B681B787A686C
:104D400003F114034FEA8303D3185B687B613B686C
:104D50001B784FF0010202FA03F39AB2BB6862F3C8
:104D60001F43BB60FB686FF3CF33FB60FA687B695E
:104D70001A607B681B697A681269D169BA686FEA40
:104D800002020A40DA61FB7C184607F11C07BD46A7
:104D900080BC704780B588B000AF786039604FF054
:104DA0000003FB774FF00003BB614FF000037B6112
:104DB0004FF000033B613B685B78012B40F0BD8006
:104DC0003B681B787A6803F104034FEA8303D31826
:104DD0009B681B687B613B681B787A6803F104035E
:104DE0004FEA8303D3189B681B693B613B685B698F
:104DF000002B0AD13B696FF312033B613B694FF013
:104E0000010262F3DC433B6128E03B685B6923F00D
:104E10007F4222F478023B6962F312033B613B68F4
:104E20005A693B689B68D31803F1FF323B689B6863
:104E3000B2FBF3F39BB24FEA83534FEA93539AB218
:104E40003B6962F3DC433B613B68DB78012B05D1B6
:104E50003B694FF0010262F35E733B613B681B7874
:104E60007A6803F104034FEA8303D3189B683A6915
:104E70001A617B68DB78012B0CD13B681B787A6860
:104E800003F104034FEA8303D3189B683A6812695D
:104E90005A6116E03B68DB78012B12D03B685B69F6
:104EA000002B0ED03B681B784FF0010202FA03F38F
:104EB000BB617B681B697A681269516BBA690A43E6
:104EC0005A633B68DB78012B14D17B681B699B68B4
:104ED000FB60FB68C3F30D239BB203F00103002BBF
:104EE00004D17B6943F000537B6103E07B6943F0AD
:104EF00080537B617B6943F080637B617B6943F016
:104F000000437B613B681B787A6803F104034FEA36
:104F10008303D3189B687A691A603B68DB78012B9E
:104F200040F0A0803B68D9683B681A783B685B69B1
:104F30009BB27868FFF7E4F894E03B681B787A68E6
:104F400003F114034FEA8303D3185B681B687B618A
:104F50003B681B787A6803F114034FEA8303D31884
:104F60005B681B693B613B685B69002B10D13B6848
:104F70009B6823F07F4222F478023B6962F31203BC
:104F80003B613B694FF0010262F3DC433B612AE085
:104F90003B685A693B689B68D31803F1FF323B6852
:104FA0009B68B2FBF3F39BB24FEA83534FEA9353F0
:104FB0009AB23B6962F3DC433B613B69C3F3C9438B
:104FC0009BB23A68926802FB03F323F07F4222F41B
:104FD00078023B6962F312033B613B69C3F312033E
:104FE0001A463B685A613B681B787A6803F11403E0
:104FF0004FEA8303D3185B683A691A617B68DB78F0
:10500000012B0BD13B681B787A6803F114034FEA3C
:105010008303D3185B683A6812695A613B68DB788E
:10502000012B0CD13B685B79002B04D07B6943F0EA
:1050300000537B6103E07B6943F080537B617B69B4
:1050400043F080637B617B6943F000437B613B6895
:105050001B787A6803F114034FEA8303D3185B6863
:105060007A691A60FB7F184607F12007BD4680BDAC
:1050700080B489B000AF786039604FF00003FB77EF
:105080004FF00003BB614FF000033B614FF00003A2
:10509000FB603B685B78012B70D17B689B697B610F
:1050A0007B691B683B617B691B69FB603B685B69D3
:1050B000002B08D1FB686FF30603FB60FB6843F429
:1050C0000023FB6022E03B685A693B689B689A4278
:1050D0000ED93B689A683B685A613B689B68DBB2B3
:1050E00003F07F03DAB2FB6862F30603FB6009E0BA
:1050F0003B685B69DBB203F07F03DAB2FB6862F303
:105100000603FB60FB6843F40023FB60FA687B69DD
:105110001A617B68DB78012B0BD13B681B787A68BE
:1051200003F104034FEA8303D3189B683A681269BA
:105130005A613B6943F080633B613B6943F0004344
:105140003B613A697B691A607B68DB78002B7ED112
:105150003B685B69002B7AD03B681B784FF00102FB
:1051600002FA03F3BA691343BB617B681B697A686F
:105170001269516BBA690A435A6368E03B681B784D
:105180007A6803F114034FEA8303D3185B681B6842
:105190003B613B681B787A6803F114034FEA830391
:1051A000D3185B681B69FB603B685B69002B0ED101
:1051B0003B689B68DBB203F07F03DAB2FB6862F303
:1051C0000603FB60FB6843F40023FB6011E03B68CF
:1051D0009A683B685A613B689B68DBB203F07F03C7
:1051E000DAB2FB6862F30603FB60FB6843F400235A
:1051F000FB603B681B787A6803F114034FEA830372
:10520000D3185B68FA681A617B68DB78012B0BD1D5
:105210003B681B787A6803F114034FEA8303D318C1
:105220005B683A6812695A613B6943F080633B618D
:105230003B6943F000433B613B681B787A6803F1AC
:1052400014034FEA8303D3185B683A691A60FB7F43
:10525000184607F12407BD4680BC704780B487B06C
:1052600000AF786039604FF00003FB754FF000032A
:10527000FB603B685B78012B1ED13B681B787A682A
:1052800003F104034FEA8303D3189B683B613B6936
:105290001B68FB60FB7B23F07F03DBB2002B03D09A
:1052A000FB6843F08043FB60FB6843F40013FB6042
:1052B000FA683B691A6013E03B681B787A6803F16F
:1052C00014034FEA8303D3185B683B613B691B6897
:1052D000FB60FB6843F40013FB60FA683B691A60EB
:1052E000FB7D184607F11C07BD4680BC704700BF18
:1052F00080B487B000AF786039604FF00003FB7472
:105300004FF00003FB603B685B78012B0AD13B68E0
:105310001B787A6803F104034FEA8303D3189B6870
:105320007B6109E03B681B787A6803F114034FEA5C
:105330008303D3185B687B617B691B68FB60FB6838
:105340006FF35553FB603B68DB78032B03D03B685E
:10535000DB78022B03D1FB6843F08053FB60FA68D3
:105360007B691A60FB7C184607F11C07BD4680BCB0
:10537000704700BF80B485B000AF78607B681B6960
:105380009B69FB607B681B69DB69FA681340FB6003
:10539000FB684FEA1343184607F11407BD4680BC6B
:1053A000704700BF80B485B000AF78600B46FB70DB
:1053B000FB787A6803F114034FEA8303D3185B6820
:1053C0009B68FB607B681B695B69FA681340FB6044
:1053D000FB68184607F11407BD4680BC704700BF44
:1053E00080B485B000AF78607B681B699B69FB6007
:1053F0007B681B69DB69FA681340FB60FB684FEA56
:1054000003434FEA1343184607F11407BD4680BC17
:10541000704700BF80B485B000AF78604FF00003E4
:10542000FB60FB6843F0C043FB60FB6843F4002370
:10543000FB60FB684FF0180262F30603FB607B68B9
:105440005B6DFA681A617B68DB78012B17D14FF02E
:105450000003BB607B685B6D7A6802F2CC525A61D4
:105460007B685B6D1B68BB60BB6843F00043BB603F
:105470004FF08023BB607B685B6DBA681A6007F1F0
:105480001407BD4680BC704780B584B000AF78601B
:105490000B46FB70FB7878681946FEF7A9FE7B681F
:1054A0004FF0010283F812217B684FF0000283F86D
:1054B00014214FF00003FB602DE0FA6813464FEA19
:1054C00083039B184FEAC30303F58C737A68D318E0
:1054D00003F10403BB60BB684FF001025A70FB6824
:1054E000DAB2BB681A70FB689AB2BB68DA80BB6834
:1054F0004FF00002DA70BB684FF040029A60BB6860
:105500004FF00002DA60BB684FF000025A61FB689E
:1055100003F10103FB607B685B781A46FB689A42E3
:10552000CBD84FF00003FB602DE0FA6813464FEA3A
:1055300083039B184FEAC30303F55C737A68D3189F
:1055400003F10403BB60BB684FF000025A70FB68B4
:10555000DAB2BB681A70FB689AB2BB68DA80BB68C3
:105560004FF00002DA70BB684FF040029A60BB68EF
:105570004FF00002DA60BB684FF000025A61FB682E
:1055800003F10103FB607B685B781A46FB689A4273
:10559000CBD87868FEF7C8FF7868FEF703FF786815
:1055A0004FF00001FFF756F87868FFF7DBF87868EE
:1055B000FEF79CFF07F11007BD4680BD80B584B0A3
:1055C00000AF7860F9703A80BB70FB785BB2002B5B
:1055D00010DAFB7803F07F0213464FEA83039B182F
:1055E0004FEAC30303F58C737A68D31803F10403FD
:1055F000FB600FE0FB7803F07F0213464FEA830362
:105600009B184FEAC30303F55C737A68D31803F160
:105610000403FB60FB7803F07F03DAB2FB681A70C7
:10562000FB784FEAD313DBB21A46FB685A703A880C
:10563000FB689A60FB68BA78DA70FB685B78002BCD
:1056400004D0FB681B781A46FB68DA80BB78022B13
:1056500003D1FB684FF000021A717868F968FFF710
:10566000CBFA4FF00003184607F11007BD4680BD86
:1056700080B584B000AF78600B46FB70FB785BB2FE
:10568000002B10DAFB7803F07F0213464FEA830306
:105690009B184FEAC30303F58C737A68D31803F1A0
:1056A0000403FB600FE0FB7803F07F0213464FEA30
:1056B00083039B184FEAC30303F55C737A68D3181E
:1056C00003F10403FB60FB7803F07F03DAB2FB68AD
:1056D0001A70FB784FEAD313DBB21A46FB685A7094
:1056E0007868F968FFF704FB4FF00003184607F1EC
:1056F0001007BD4680BD00BF80B586B000AFF86022
:105700007A600A46FA723B81FB7A03F07F02134605
:105710004FEA83039B184FEAC30303F55C73FA68EF
:10572000D31803F104037B617B697A68DA603A89F4
:105730007B695A617B694FF000029A617B694FF087
:1057400000025A70FB7A03F07F03DAB27B691A70A9
:10575000FB68DB78012B02D17A687B691A617B696F
:105760001B78002B04D1F8687969FFF781FC03E00E
:10577000F8687969FFF70EFB4FF00003184607F150
:105780001807BD4680BD00BF80B586B000AFF86089
:105790007A603B600B46FB72FB7A03F07F02134694
:1057A0004FEA83039B184FEAC30303F58C73FA682F
:1057B000D31803F104037B617B694FF001025A7037
:1057C000FB7A03F07F03DAB27B691A707B697A682F
:1057D000DA607A687B691A617B694FF000029A612E
:1057E0007B693A685A617B691B78002B04D1F868A1
:1057F0007969FFF73DFC03E0F8687969FFF7CAFAB9
:105800004FF00003184607F11807BD4680BD00BFE2
:1058100080B584B000AF78600B46FB70FB785BB25C
:10582000002B10DAFB7803F07F0213464FEA830364
:105830009B184FEAC30303F58C737A68D31803F1FE
:105840000403FB600DE0FA7813464FEA83039B18CC
:105850004FEAC30303F55C737A68D31803F10403BA
:10586000FB60FB684FF001029A70FB7803F07F0346
:10587000DAB2FB681A70FB784FEAD313DBB21A4630
:10588000FB685A707868F968FFF7E8FC4FF000038E
:10589000184607F11007BD4680BD00BF80B584B033
:1058A00000AF78600B46FB70FB785BB2002B10DA20
:1058B000FB7803F07F0213464FEA83039B184FEAFD
:1058C000C30303F58C737A68D31803F10403FB60F8
:1058D0000DE0FA7813464FEA83039B184FEAC3039F
:1058E00003F55C737A68D31803F10403FB60FB686B
:1058F0004FF000029A70FB7803F07F03DAB2FB6886
:105900001A70FB784FEAD313DBB21A46FB685A7061
:105910007868F968FFF7ECFC4FF00003184607F1D0
:105920001007BD4680BD00BF80B485B000AF786071
:105930000B46FB704FF00003FB60FB7803F07F0326
:10594000DAB2FB6862F30A13FB607B681B697A6852
:1059500012691168FA680A431A6007F11407BD4614
:1059600080BC704780B586B000AF78604FF0000310
:105970007B617868FEF7B0FE0346002B00F0B8802C
:105980007868FEF7BBFE03463B613B69002B02D102
:105990004FF00003ADE0BB7C03F00803DBB2002B4B
:1059A00006D0786800F070FA03467A6913437B6189
:1059B000BB7C03F00403DBB2002B06D0786800F058
:1059C0008BF903467A6913437B613B7C03F0020346
:1059D000DBB2002B0AD04FF00003FB60FB6843F002
:1059E0000203FB607B68DB68FA685A61FB7C23F08A
:1059F0007F03DBB2002B06D0786800F0BFF80346C7
:105A00007A6913437B617B7C03F00803DBB2002BD4
:105A100006D0786800F0F8F803467A6913437B6192
:105A20003B7C03F00803DBB2002B06D0786800F063
:105A3000EDFA03467A6913437B613B7C03F0100364
:105A4000DBB2002B06D0786800F0FEFA03467A69D4
:105A500013437B617B7C03F01003DBB2002B06D089
:105A6000786800F015FC03467A6913437B617B7C00
:105A700003F02003DBB2002B06D0786800F0B4FC02
:105A800003467A6913437B61BB7C03F01003DBB2EE
:105A9000002B06D0786800F0BDFD03467A691343F9
:105AA0007B61BB7C03F02003DBB2002B06D078685F
:105AB00000F0CEFD03467A6913437B61FB7C03F063
:105AC0004003DBB2002B06D0786800F017F80346DD
:105AD0007A6913437B613B7C03F00403DBB2002B48
